S01D00006D746B335F72613870315F656B5F776173705F72312E7372656332
S3150200000020C100224532000249300002413200027C
S315020000104132000241320002413200024132000204
S315020000200000000000000000000000004132000253
S315020000304132000200000000413200024132000259
S31502000040A1230002E5230002A12900028918000269
S31502000050F51D00026D1D0002691E0002A11E0002AE
S31502000060F51D00026D1D0002691E0002A11E00029E
S31502000070F51D00026D1D0002691E0002A11E00028E
S31502000080000000000000000018000022000000002E
S315020000900000000000000000E0E50322000018A0B6
S315020000A000000000000000000000000010400000F8
S315020000B010C21000108100000000000001030000C1
S315020000C0FD6700021E0000000002000000000000A2
S315020000D00000000001030000DD69000208000000C4
S315020000E000040000000000000000000008000000FC
S315020000F0000000000000000001030000996A0002EF
S3150200010005000000000400000000000000000000DE
S3150200011001030000956C00020C00000000040000C0
S31502000120000000000000000001030000A16D0002B3
S315020001300C0000000004000000000000C0000022C5
S315020001400000000028E9032290E90322F8E90322CD
S315020001500000000000000000000000000000000097
S315020001600000000000000000000000000000000087
S315020001700000000000000000000000000000000077
S311020001800000000000000000000000006B
S315020001900348044B834202D0034B03B1184770470E
S315020001A00C0100220C01002200000000064B074948
S315020001B0C91A891048BF0131491003D0044B0BB14B
S315020001C001481847704700BF0C0100220C010022AB
S315020001D00000000010B5064C237843B9FFF7D8FF9C
S315020001E0044B13B10448AFF300800123237010BD02
S315020001F030E500220000000028F1C90208B5054BCF
S315020002001BB105490548AFF30080BDE80840FFF77A
S31502000210CDBF00BF0000000034E5002228F1C9026C
S31502000220024B03481B681844704700BF08240102AA
S3150200023050E50022024B03481B681844704700BF72
S315020002400424010250E5002200F000B800234FF416
S315020002507A5100B5174A95B0CDE90A23164A069196
S31502000260126807910592154A02F5FA51CDE9101363
S315020002704FF4F571CDE90C23CDE90E23089108B1AF
S3150200028013601371CDE9122305230022CDE9013251
S315020002900B4A099305AB009312680AAB09490A484F
S315020002A001F070FA431C58425841404215B05DF8BD
S315020002B004FB00BFC08D00020024010250E50022AB
S315020002C0B88D0002A0810002E0E503220369C2683C
S315020002D093429CBF81685B18013B981A70472DE9CF
S315020002E0F0410546D0E902844068A8EB040696422E
S315020002F020440F46144406D906F084FEBFF35F8FEE
S31502000300EC60BDE8F0813246A4EB080406F07AFE02
S3150200031022466868B919EFE72DE9F8430646894689
S3150200032017464FF00008C5683169B4684A1E0B19B2
S315020003308D42A4EB0504A2EB050203F1FF33A3EB06
S31502000340050338BF1346BC4228BF3C469C4228BF21
S315020003501C46706849462246284406F053FEB36896
S315020003602544AB4208BF0025A044A1443F1BBFF36E
S315020003705F8FF560002FD7D14046BDE8F8830000B5
S3150200038008B5154BA8220021184606F01BFE0322CB
S31502000390124902614261124A8161C2614FF40062EE
S315020003A00262002282624262C26201660D4903460D
S315020003B04166102098661A67DA665A67BFF35F8F3E
S315020003C040F001E0084911F9010D985401320FF08D
S315020003D007C0BFF35F8F08BDE02B01220C24010288
S315020003E0E0230122D023012238300102F8B5182772
S315020003F000FB0775124B0E461D4407FB0033DB6AF2
S315020004001446012B0AD0022B14D023B92846FFF733
S315020004105DFF844208D900242046F8BD2846FFF72E
S3150200042055FF844228BF0446224631462846FFF736
S3150200043056FFF1E72846BDE8F840FFF76DBF00BF5B
S31502000440E02B0122F8B50B4B04461B780D46532BC5
S31502000450164601D0FFF794FFEFF311874FF0200104
S3150200046081F31188324629462046FFF7BFFF87F3FC
S315020004701188F8BDE02B012210B582680446406857
S31502000480531C834205D820688154A360E368013374
S31502000490E360D4E901329A420BD121682069FFF761
S315020004A0D1FFA368984215BF4FF0FF330023E360E4
S315020004B0A36010BD2DE9F84F1646054688460A4642
S315020004C04FF0010A9946DDE90A43B24212D2CA4501
S315020004D038BFCA4613F0010B01D184B90024EB6878
S315020004E0002B3CDB0127B9F1010F1ED909F1FF39B7
S315020004F07743F8E7B2FBF6F20AF1010AE5E79B0752
S3150200050011D5B9F1000F0CBF30272027A245E6D23C
S3150200051039462846FFF7B0FFEB68013C002BDEDBCD
S31502000520002CF3D1DAE72027F0E7B8FBF7F39E4277
S31502000530DED9DFF84890B8FBF7F3284619F903101D
S3150200054007FB1388FFF798FFEB68002B03DBB74224
S31502000550B7FBF6F305D2BBF1000F00D05CB9BDE8DC
S31502000560F88F1F46E7E720212846FFF785FFEB684D
S31502000570013C002BF3DB5445F5D8F0E73930010294
S315020005802DE9F04F00230D46402116469BB0CDE9DA
S315020005900613CDE908300DF1280A0390CDF814A010
S315020005A015F9011B39B9089D002D00F32F81089812
S315020005B01BB0BDE8F08F252940F0D1804FF0000B2B
S315020005C0294611F9013B2D2B19D013DC232B1DD003
S315020005D02B2B18D00024294611F9013BA3F1300038
S315020005E0C0B2092815D80A2202FB04330D46A3F12C
S315020005F03004F0E7302BEDD14BF0020B01E04BF06B
S31502000600010B0D46DCE74BF0040BFAE74BF0080B47
S31502000610F7E72E2B3CD195F901302A2B21D1012760
S3150200062033680235191D3160D3F80090284610F957
S31502000630011B21F0040CBCF1680F0546F7D078299E
S315020006400BDC6F2928DC632900F084803CDC252939
S3150200065000F08580582900F0AF80089B002B9FDAB6
S31502000660A1E74FF000090D464F464FF00A0E284605
S3150200067010F9011BA1F1300C5FFA8CFCBCF1090FD9
S31502000680D4D80EFB091105460127A1F13009EEE780
S315020006904FF000094F46C9E770390829DDD801A095
S315020006A050F821F0FD0700025B0600025B0600021D
S315020006B0C90700025B060002A70700025B060002EA
S315020006C05B060002B90700026429C6D131684FF001
S315020006D00108081D30600A200F6887EAE771A1EB5E
S315020006E0E77109293FDCC84538BFC8462CB1002F3F
S315020006F002DB1BF0040F00D0013C1BF0020F02D0FC
S31502000700B9F1000F04D01BF0010F01D184BB002404
S3150200071008990029A1DB002F35DA2D217F4205A891
S31502000720FFF7AAFE0899002997DB0BF003010229BD
S3150200073004D1B9F1000F01D154BB00240899002954
S315020007408BDB4B460A223946CDE9004B05A8FFF75B
S31502000750B1FE82E733681A1D326093F9001005A8CC
S31502000760FFF78AFE79E7B1FBF0F108F10108B8E775
S315020007704445CDD9202105A8FFF77EFE0899013C04
S315020007800029C3DAC4E71BF0040FCED02B21C6E73B
S315020007904445D3D9302105A8FFF76EFE0899013CDE
S315020007A00029C9DACAE74B460A223168081D3060B9
S315020007B0CDE9004B0968C9E74B463168081D306030
S315020007C0CDE9004B1022F5E73268111D316014683D
S315020007D00CB90027124C14F9011B00293FF43DAF56
S315020007E01FB1B9F1000F3FF438AF05A8FFF744FE79
S315020007F0089A09F1FF39002AEDDA2EE7316800225C
S315020008000B1D33600823CDE90032DBE7079C24B1D8
S31502000810224651460398FFF715FE2C440894C6E675
S31502000820152401020EB403B503AB53F8041B01AA47
S315020008300193FFF7A5FE02B05DF804EB03B0704723
S3150200084008B517490020FFF7EDFF16490020FFF70C
S31502000850E9FF00F031FC14490020FFF7E3FF00F046
S3150200086059FC12490020FFF7DDFF00F081FC104918
S315020008700020FFF7D7FF0F490F4800F09BFF024603
S3150200088018B100200D49FFF7CDFF0D490020FFF7F3
S31502000890C9FF00F007F9BDE8084003F071BE00BFCA
S315020008A01C240102452401025D2401027224010274
S315020008B08B240102B43001020000002295240102B9
S315020008C0C2240102022808B508D10549054801F0EB
S315020008D09FFEBDE80840012002F058BC08BD00BFDB
S315020008E024320102D4E5032210B54FF47A5E0023C6
S315020008F04EF001E009490A4C34F8132098105200D0
S3150200090021F8102004330FF009C84FF47A51BDE8DC
S315020009101040044A014800F08BB900BF000000688D
S31502000920007D0068922C012270B586B0FFF778FC34
S315020009304FF4F572234906F065FB23490020FFF7C1
S3150200094071FF0020FFF780FCFFF774FC1F4D01AC1E
S3150200095006460FCD0FC42B680522236000236FF0D5
S315020009607F051C46F156A942C4BF1C460D46013AF4
S3150200097003F10103F6D106AB03EB840353F8146CBF
S3150200098000202B4632461249FFF74CFF022C16D0A6
S31502000990042C14D0032C08D1642D08DC00200D4948
S315020009A0FFF740FF4FF0FF3406E0012CF6DC32463B
S315020009B000200949FFF736FF204606B070BD7F2D9D
S315020009C0F5D0EBE7922C0122CE2401026830010217
S315020009D0E3240102152501020325010238B5037934
S315020009E0022B1BD0032B22D0012B09D1124D134A05
S315020009F02C781278A24204D800222A70104A137068
S31502000A0038BD4FF47A420F490F4806F0FBFA0F4AF7
S31502000A10013413782C7083F00103F0E70C4B0121AB
S31502000A20186804F07BFB01220A4B1A70E8E7C288B9
S31502000A30094B1A80E4E700BF7C2E01228D2C01228D
S31502000A40912C0122882E0122007D00688C2C012225
S31502000A50882C0122902C01228E2C012210B50446EC
S31502000A60A0B10020FFF7DEFE0948036843B101F09A
S31502000A70B5FB28B10020074B074A0849FFF7D2FE0B
S31502000A80224607490020FFF7CDFE00BE10BD00BF7B
S31502000A9028E60322322501024930010251250102CC
S31502000AA06F25010208B50A490A4801F0E3FB0A4923
S31502000AB0FFF7D4FF012148F6014002F093FA102213
S31502000AC0064B00201A700649BDE80840FFF7AABE89
S31502000AD0C430010228E603228F2501027D2E01225F
S31502000AE0AB25010240F6B83307B5074A0748CDE9F8
S31502000AF0002302AB13E9060001F056FA044903B0DB
S31502000B005DF804EBFFF7AABF0000E8FF28E6032220
S31502000B10C025010208B5044801F07DFABDE8084087
S31502000B200249FFF79BBF00BF28E60322EC2501021C
S31502000B30012210B54FF4FA442B4B00201A702B4BAE
S31502000B4019782B4B0731C9086143C3E9004129498A
S31502000B50FFF768FE23464FF4FA322749274801F089
S31502000B607EFA2749FFF77AFF264B1A78002AFCD02D
S31502000B700020254C187023889BB21A461BB3238883
S31502000B801B0504D5214B224A2249FFF74BFE238837
S31502000B90D90705D50020204B1D4A1E49FFF742FE04
S31502000BA023889A0705D500201C4B194A1949FFF7D5
S31502000BB039FE23885B0705D50020194B144A1549CF
S31502000BC0FFF730FE012210461649FFF747FF164986
S31502000BD00020FFF727FE094801F0FAFABDE81040A7
S31502000BE01249FFF73BBF00BF8D2C01227D2E012249
S31502000BF0802E012219260102882E012228E60322CE
S31502000C003F260102912C01228E2C01225C26010232
S31502000C1056300102512501028A260102D826010216
S31502000C2017270102572701027127010289270102AC
S31502000C302DE9F04F2DED068BD94EADB0346807463F
S31502000C4090460091FCB9DFEDD79A9FEDD79AF7EE61
S31502000C50008AB6EE008ADFF8949307EE904AB8EE61
S31502000C60E70A20EE290A80EE090A06F09DFF38EE11
S31502000C70C00A20EE080A0134B4F5F07FA9EC010A95
S31502000C80EBD101233360C94ED6F80090B9F1000FBB
S31502000C906DD102ACA2469FEDC69ADFEDC68A9FEDE4
S31502000CA0C68A07EE909AB8EEE77A27EE097AC7EE79
S31502000CB0287ADFEDC20A77EE887AB2EE040AC7EE28
S31502000CC0A00A06F0D1FDF7EE007A30EE670ADFEDF4
S31502000CD0BC7A20EE270ADFEDBB7A9FEDBB7A20EEC7
S31502000CE0270AC0EE077AFBFE677AFDEEE77A09F17C
S31502000CF00109B9F12A0FEAEC017AD2D100214AF2AE
S31502000D00A002B24806F05EF942F628090021DFF891
S31502000D10BCE2226854F8043F50189D1A9A42924641
S31502000D2007EE105AD4F804C00EEB800005F1010B51
S31502000D3002DCB3F1004F01D14FF0010BBBF1010B05
S31502000D4003D0BAF5807F40F37B811A4658180EEB22
S31502000D508000ACEB030A944503DBB2F5807F40F3D7
S31502000D60818101F201114945D3D101233360DFF8B4
S31502000D70A4B2DBF80040DCBBDFF88892DFED948A90
S31502000D80CA46B6EE009ADFED939A9FED93AA07EE56
S31502000D90904AB8EEE78A534628EE288A002607EEDE
S31502000DA0906AB8EEE70A30EE090A20EE080A80EEEB
S31502000DB0290A019306F0F8FE20EE0A0A019B013683
S31502000DC0282EA3EC010AEAD101340A2C0AF1A00A60
S31502000DD0DDD19FED827A46F001E0D9ED007A67EE29
S31502000DE0877AE9EC017A0FF009C00123CBF80030CB
S31502000DF07B4C236833B94FF400717A4803F04CFAFE
S31502000E0001232360009D3A46B5F57A5FA8BF4FF4E9
S31502000E107A559FED758A25EAE57525F0004301337B
S31502000E20013B40F03281F7EE007AB4EE678AF1EECA
S31502000E3010FA4FF0000648BFB0EE678ADFF8B091AD
S31502000E404FF400620021484606F0BCF84FF4F073F6
S31502000E506649674A7401A542C8BF37F91400DFED37
S31502000E60627AC4BF07EE900AF8EEE77AF1EC016AFD
S31502000E7087EE887A67EE267A013BE2EC017A04F184
S31502000E800104E8D15B4C002322464946554802F04C
S31502000E90DDFFD4ED007AF0EEE77A574B4FF0010A08
S31502000EA0C3ED007AD4ED017AF0EEE77A03F58062BB
S31502000EB0C2ED007A03F1040B94ED030AD4ED027A33
S31502000EC020EE000A07EEA70A06F042FC0AF1010A22
S31502000ED0BAF5807FABEC010A04F10804ECD147486D
S31502000EE04FF0000B8246DFED468A384C40F2011C79
S31502000EF023469FED3D0A4CF001E03F4AB3EC017AEE
S31502000F00F2EC017A07EE270A0FF009C030EE280A42
S31502000F1006F040FC0BF1010BBBF1280FAAEC010A0B
S31502000F20364804F20444E1D102A98B460023354A2D
S31502000F304FF0280E84461446DFED2B7A4EF001E080
S31502000F40F4EC016ABCEC017A46EE877A0FF009C02E
S31502000F5001330A2BEBEC017A02F1A002E8D1DFEDB4
S31502000F602A6A9FED2A6ADFED2C5A9FED297A1A46E4
S31502000F7008EB0600B1EC015AC5EE267AF8FE677A4E
S31502000F8077EE867AF4EEE57AF1EE10FA00F19080C9
S31502000F90F4EE477AF1EE10FA77FE277A3EE000BFCA
S31502000FA0A4C90322DB0FC9400000F0430029032233
S31502000FB00F25044500002442E2FCFD410030224593
S31502000FC000002F440040004400007A460429032210
S31502000FD0DB0F4940000020422EF9643EF304353F00
S31502000FE0882203228C22032200000000A8C90322C1
S31502000FF0CCDD0322CCD50322C8D1032228D1032279
S31502001000BD378635C022032255CE123F0000AE42BE
S315020010100000FE42BC220322000000C3FDEEE77A76
S3150200102017EE903A013A00F8013BA3D10A36B6F51B
S31502001030F57F7FF405AF2DB0BDEC068BBDE8F08FD2
S315020010409A420BD0AAEB020507EE905AB8EEC76A8F
S31502001050F8EEE77AC7EE866AC0ED006A0AF1010A7F
S3150200106004306BE663450DD0ACEB020507EE10AA21
S3150200107007EE905AF8EEC76AF8EEE77A87EEA67A96
S3150200108080ED007A0132043065E632F9021B07EE82
S31502001090901AF8EEE77AB1EE677A002967FE877A48
S315020010A0B4EEE78AF1EE10FA48BFB0EE678AB7E609
S315020010B05FED277AB2E700BF10B50749074800F08F
S315020010C06FFD044628B10020054B064A0649FFF784
S315020010D0A9FB204610BD00BF883101026CE603223F
S315020010E0CE2701027C300102512501020279064B0C
S315020010F0022A1A7006D10121044B002019700449F4
S31502001100FFF790BB704700BFCDE50322CCE5032273
S315020011100028010210B50749074800F041FD0446C0
S3150200112028B10020054B064A0649FFF77BFB2046FD
S3150200113010BD00BFBC310102A0E603222228010233
S315020011408F300102512501020279064B022A1A70DA
S3150200115006D10121044B002019700449FFF762BB36
S31502001160704700BFCFE50322CEE5032254280102D1
S3150200117010B50749074800F013FD044628B10020C0
S31502001180054B064A0649FFF74DFB204610BD00BF38
S31502001190F0310102D4E60322712801029F300102D6
S315020011A0512501020279064B022A1A7006D1012143
S315020011B0044B002019700449FFF734BB704700BF87
S315020011C0D1E50322D0E50322A328010208B5FFF7E1
S315020011D037FB002008BD704702220368DA6145F238
S315020011E053520368DA630268044B13640268536459
S315020011F00268936402680020D364704700001F0FE0
S315020012002DE9F843089F0546082F084691461E46D3
S3150200121005DD94211D4B1E4A1E4801F0DBFE00240B
S315020012204FF0FF322146FFF7D6FF4FF0FF388045D9
S3150200123074EB010103D29821174B154AECE72B6890
S31502001240083E18612B68C3F82090A146BC4208DB11
S315020012502A68936803F00C0343F001039360BDE828
S31502001260F8832246F6E90201FFF7B5FF804579EBDE
S31502001270010103D2A421094B054ACDE72B6804F1EB
S31502001280100243F832000134E0E700BFC028010231
S3150200129078360102E62801022029010236290102D6
S315020012A070470268936803F00C0343F002039360ED
S315020012B003685A685107C2F3800010D45A68C2F311
S315020012C00011D2060ED45A68C2F3C010120608D410
S315020012D05A68D20506D45868C0F3401070470020F9
S315020012E070470846704743680168B3FA83F34A6A4F
S315020012F05B09C2F3400293420AD180684B6A003806
S3150200130018BF012003F00103C31A5842584170471F
S3150200131000207047002138B542688368B2FA82F22B
S315020013205B1A18BF01230446520943EA420363F3D8
S3150200133007010368D96002680B4B5168090701D59A
S31502001340013BFAD15368C3F3C0051B0702D54FF020
S31502001350FF3038BD2046FFF7C6FF0028F7D02046EB
S31502001360FFF73AFF2846F4E7A086010010B5C0E968
S31502001370001283608B6A1B0F05D1FFF7CBFFB0FA11
S3150200138080F0400910BD0020FCE730B50468501E0D
S31502001390A368454203F00C034541022AC3F3C00089
S315020013A014BF2A4602464D1E6842684162F3C303D1
S315020013B00229C3F3800218BF024662F38203A360C6
S315020013C0002030BD70B50368986A1B68884223D036
S315020013D00C0E4140050E0807CEB21BD185EA040069
S315020013E00F288CBF00200120102E28BF00202907BD
S315020013F003D414F0080F18BF002082EA0301B1F1EA
S31502001400805F0BD2C2F30752C3F307539A4288BFD7
S31502001410002070BD0020E7E70120EEE70020F8E794
S315020014201C220021103005F0CDBD00000048704797
S3150200143008E70322002070470020704708B5012004
S3150200144005F0EAFC08B10023037008BD03781BB15E
S31502001450013B03700020704720BFF7E70378013392
S31502001460037040BF002070477047704710B5437C39
S315020014700446012B0BD002230374FFF712FF80F000
S3150200148001035B00DBB2E06A6374FFF7E7FF10BD9E
S315020014902DE9F0471E4E9A46336804468846914621
S315020014A06BB31C4F3B681BB9FFF7C8FF386058B3D4
S315020014B00223002584F8413084F842304146DDE9B2
S315020014C008232046C4E90C95C4E90EA5FFF74EFF92
S315020014D0D0B1FFF7B3FFE062B0B12046FFF7A0FF3D
S315020014E03068FFF7A7FF0C4B30681A681C60E26091
S315020014F0FFF7A2FF3868FFF7B1FF284606E0FFF7BD
S3150200150095FF30600028CCD14FF0FF30BDE8F08760
S3150200151010E703220CE7032214E7032238B5054637
S31502001520FFF7F8FE044648B9EA6B2846B2FA82F299
S3150200153052091146FFF729FF204638BD4FF0FF300A
S31502001540FBE710B5C36B04465A1CC2630BB10020FD
S3150200155010BDFFF7E3FF0028F9D0E36B4FF0FF3031
S31502001560013BE363F4E7C36B33B1013BC3631BB9CE
S3150200157001221146FFF709BF704738B5037C0446BE
S31502001580012BDDB24AD0022D4AD0002D4AD0FFF7F8
S3150200159047FF4FF0FF353FE094F842302B41DB071F
S315020015A007D5D4E9073252F8251053F8350000F072
S315020015B0DDF90135636A9D42EEDB4FF0FF324FF0F3
S315020015C0FF33E06AFFF742FF00280CDA0123637457
S315020015D0227C022A07D163744FF0FF324FF0FF33A9
S315020015E0E06AFFF733FF2046A16AFFF73EFF204677
S315020015F0FFF7B9FF637C03F0FF0553B1637C022B4F
S3150200160002D12046FFF74CFE2046FFF787FF4FF038
S31502001610FF352046FFF704FF284638BD0029FBD0D8
S315020016200025C7E76FF00105F6E700002DE9F3474D
S315020016300446DDE90A0631B940F282214B4B4C4A97
S315020016404C4801F0C7FC23B940F283214A4B484A71
S31502001650F6E720B94FF42171484B454AF0E7257C5D
S3150200166001EB020905F0FF07002D7BD10C9DC4E9B1
S315020016700512C4E9073027746662A5620D68404FF9
S31502001680BD426CD112F0030769D10D1DD4E90C12CB
S3150200169051EA020C07D0022E05DD8668A06B86424F
S315020016A05DD8C3E904124D4503D3384602B0BDE8FE
S315020016B0F0872B78022B0CD0052B4ED0012B4ED166
S315020016C0D5E901122046FFF77DFE002847D00C35EA
S315020016D0E9E76B78B5F8028005F1040A48EA03489F
S315020016E01AF00F064FEA880839D1626A3146002A93
S315020016F002F10103B8BF0123013B18D1636A9E427E
S315020017001CDB2046FFF71DFF48BB01232046A16ACA
S315020017102374FFF7A9FE636A4246009351462046A8
S31502001720E36908F10408FFF76BFD4544BBE7E2698C
S3150200173052F83120120712D10131DDE794F8413017
S315020017403341DB0707D5D4E9073252F8261053F89E
S31502001750360000F0C7F80136D0E70435A3E7204685
S31502001760FFF75EFE4FF0FF379FE700BF89290102B0
S315020017709636010257290102A1290102B329010263
S31502001780434F503130B585B00A9D04460295099DF6
S315020017900195089D0095FFF749FF002806DB012108
S315020017A0204605B0BDE83040FFF7E7BE4FF0FF30F8
S315020017B005B030BD73B504460D46EFF31086012120
S315020017C081F310882A4B1A6822F480321A601B6849
S315020017D01E2001F007FC86F31088AB7BA0680193FC
S315020017E06B7B24490093002300681A46FFF750FEDC
S315020017F000283AD195F90C30AA68002BACBF03F148
S3150200180060411D494FEA0212D2B2ABBF01F56141F6
S3150200181003F00F0081F800230A54184A03F5C65153
S3150200182042F82340164A52F8210020F4803042F84A
S31502001830210052F82120BFF35F8F012203F01F011E
S315020018405B099B0003F160438A4003F56143C3F8D9
S3150200185080211A60002065602B68E3606B68206156
S315020018606361084B236002B070BD0320FBE700BF33
S31502001870003020400000144014ED00E070E703221F
S315020018800060004054454D5237B5EFF30383103BD9
S315020018905CB2124B53F82450AB681868FFF7E6FDAA
S315020018A0EB685BB12869B0B1036801936B690360A9
S315020018B0EB6898472B690BB1019A1A60084A04F53E
S315020018C0C65352F8231021F4803142F8231052F8FD
S315020018D0233003B030BD01A8E8E700BF70E703225A
S315020018E00060004070B520BB1F4AC2F88400BFF3F7
S315020018F04F8F43F6E074D2F88030C3F3C900C3F3C6
S315020019004E335B0100F1010E01464EF001E003EA9F
S31502001910040646EA8175C2F86C5201390FF007C80F
S31502001920203B13F1200FEDD1BFF34F8FBFF36F8F23
S3150200193070BD0029FCDD00F01F031944BFF34F8F71
S31502001940C3434418234420395B09203103F1010EB5
S31502001950D8BF4FF0010E4EF001E0034AC2F868020A
S3150200196020300FF005C8DFE700ED00E070B520BBC0
S315020019701F4AC2F88400BFF34F8F43F6E074D2F8D1
S315020019808030C3F3C900C3F34E335B0100F1010E8D
S3150200199001464EF001E003EA040646EA8175C2F802
S315020019A0745201390FF007C8203B13F1200FEDD115
S315020019B0BFF34F8FBFF36F8F70BD0029FCDD00F0C0
S315020019C01F031944BFF34F8FC343441823442039DE
S315020019D05B09203103F1010ED8BF4FF0010E4EF024
S315020019E001E0034AC2F8700220300FF005C8DFE7B3
S315020019F000ED00E0EFF30380103840B270470000BC
S31502001A00054B00F5C65053F8202022F4803243F8E5
S31502001A10202053F8203070470060004008B5014688
S31502001A20FFF7EEFFBFF35F8F012201F01F039A401B
S31502001A304B099B0003F1604303F56143C3F8802120
S31502001A401A6008BD01220649430900F01F008240C0
S31502001A50203341F82320BFF34F8FBFF36F8F7047B8
S31502001A6000E100E0034630B5446AA06820F4401065
S31502001A70A060586A846C6400FCD5846824F0100463
S31502001A8084605C6A257FC5F30010ED06FAD4C3E9CB
S31502001A900412A36843F01013A36030BD70B5144658
S31502001AA0064610460D46FFF7CDFF2046FFF7A8FF74
S31502001AB0002CACBF04F16043074B4FEA0511C9B2D3
S31502001AC0ABBF03F5614304F00F0283F80013995488
S31502001AD0024B43F8246070BD14ED00E070E7032268
S31502001AE0F0B5C46A85B006468C4617466D46B4B153
S31502001AF094E80F0085E80F00336A20461B78C4F885
S31502001B0008C023602771336BE360B36A9847F46AAF
S31502001B101CB195E80F0084E80F0005B0F0BD2C4615
S31502001B20EAE7000010B5124A92F8543003F00F03A8
S31502001B30072B18D8DFE803F00E0E0E041A11131540
S31502001B40062492F8550000F00F0001F0EBF9B0FB05
S31502001B50F4F010BD01249C40F3E70324F1E70524C9
S31502001B60EFE70A24EDE71024083BF4E70824E8E748
S31502001B7000E0014038B5036A0446DD69002383604C
S31502001B806B7C4BB1FFF7CEFF044A6B7C1268534362
S31502001B90B3FBF0F30133A36038BD00BFC0E70322F5
S31502001BA02DE9F0410B78012703F5800303F556531F
S31502001BB01B0243620023016203704A690D46826278
S31502001BC08A690446C0E90B328378CE6967F301035A
S31502001BD083704B78002B14BF3A460222837862F355
S31502001BE00103837091F90B20897AFFF757FF20468C
S31502001BF095F905202979FFF751FF204695F9072027
S31502001C00A979FFF74BFF204695F90920297AFFF7B4
S31502001C1045FFEFF3108887F310884FF000414C4BD5
S31502001C2028785A68C14022EA01025A605B681E207F
S31502001C30394601F0D7F988F310884FF48062636A57
S31502001C409A606B78E978EA691B02890301F480419C
S31502001C5003F440730B4311785068090601F0407192
S31502001C600B435178C90389B20B43517B490501F4F1
S31502001C7000110B43616A43F480534B611378991E3A
S31502001C80B94263D83349022B334B18BF0B46616AFC
S31502001C900B61117BAB7801F0030141F0300133B1E6
S31502001CA0022B14BF4FF440734FF480731943937899
S31502001CB01B0703F080530B43616ACB600021636A02
S31502001CC09961012329788B40C3F3090313B1636A2F
S31502001CD022495962937BD17B127C01F01F0103F0EA
S31502001CE0010343EA012302F01F0243EA0243626A46
S31502001CF0204613630023C4E90433C4E90633FFF71D
S31502001D0039FF7389164AA381636A9A66236A93F92D
S31502001D100500FFF783FE236A93F90B00FFF77EFEA9
S31502001D20236A93F90700FFF779FE236A93F90900FC
S31502001D30FFF774FE0B4A636A9A60626A137FDB07D7
S31502001D40FCD5094B00206360BDE8F08103689EE77D
S31502001D500030204004FF00FF24FF00FF00001F1F89
S31502001D601000079D110401004249435338B5FFF79D
S31502001D7041FE0146FFF744FE1D4B53F82140236AFC
S31502001D801B69002B2FD16369626AABB9636AA068CB
S31502001D909D6825F4801545F4001508B101F01CF97B
S31502001DA00021636A9D60A36A2161FBB12046BDE8FA
S31502001DB038408022FFF794BEA378216903F003031B
S31502001DC0022B09BF0B880B7823F4DC439BB20CBFB2
S31502001DD053601371A378626903F00303D21A626136
S31502001DE022691A4422616369002BCFD038BD00BF35
S31502001DF070E7032213B5FFF7FDFD0146FFF700FE6C
S31502001E00184B53F82140A27802F00303022B636AAF
S31502001E100CBF19681978E3690CBFC1F30801C9B28E
S31502001E20019143B9A36AD3B10422204602B0BDE8A8
S31502001E301040FFF755BE02F0030201A9A06905F0A2
S31502001E40E1F8A378A269E16903F003031A44C91A07
S31502001E50A261E16119B9A36A0BB10122E5E702B0F9
S31502001E6010BD00BF70E7032210B5FFF7C3FD0B4B91
S31502001E70044653F82000426A936823F4401323F081
S31502001E8010039360836A1BB102220021FFF728FE2A
S31502001E902046BDE81040FFF7B3BD00BF70E703223E
S31502001EA0F8B5FFF7A7FD1A4B054653F820008378CD
S31502001EB0446A03F00303022B0CBF21682178A26C4B
S31502001EC008BFC1F30801C2F30073C2F300664FEA0A
S31502001ED0031343EA4613C2F3C06243EAC20618BFBB
S31502001EE0C9B2DB06324606D5A76C46F0400317F4A4
S31502001EF0004F08BF1A46A36E43F0C853A366836A0F
S31502001F000BB1FFF7EDFD2846BDE8F840FFF778BDB7
S31502001F1070E70322054B00F5C65053F8202022F441
S31502001F20803243F8202053F820307047006000408A
S31502001F3001220649430900F01F008240203341F87E
S31502001F402320BFF34F8FBFF36F8F704700E100E08E
S31502001F5010B5041EACBF04F16043114B4FEA0111E8
S31502001F60ACBF03F5614304F00F00C9B2B4BF195404
S31502001F7083F800130B4B204643F82420FFF7CAFFD1
S31502001F80BFF35F8F012304F01F026409A40004F16A
S31502001F906044934004F56144C4F88031236010BD67
S31502001FA014ED00E070E7032273B502AB03E9060005
S31502001FB0D0E9015495F921300646002B0CDBE36883
S31502001FC0DB0309D4E368024643F48033E360A97F66
S31502001FD095F92100FFF7BCFFA36943F00203A36151
S31502001FE0009BC4F8B830019BC4F8BC30236943F0A7
S31502001FF00203236195F92030002B09DBE3683246A0
S3150200200043F00203E360697F95F92000FFF7A0FF22
S31502002010002002B070BD08B5D0E90123196921F08C
S315020020200201196192F920100029A2BFD96821F094
S315020020300201D960996941F00201996192F9211070
S3150200204000290ADBD3F8E00038B9D96860F31041F9
S31502002050D96092F92100FFF76BFF002008BD2DE938
S31502002060F04146680446B06990F86450880740F02B
S3150200207082804FF0FF30A84023EA000002F00305F9
S3150200208028437BD19208B2FBF3F003FB1020002811
S3150200209074D1C4E906030123A568C4E90421E160F9
S315020020A0C5F8E0301E2343F001E0D5F8E8300FF022
S315020020B005C0D4E9018ED8F80C70D8F818006FB9AB
S315020020C096F92130002B43DAEB6843F00403EB6008
S315020020D096F91F00002849DA002037E07B68D4E928
S315020020E003211B6802EB810C0EF1E8025A605A8842
S315020020F0E16822F020021205120D42F420425A80B3
S315020021000122996090F864108A4092B2DA8190F8BE
S315020021106410A28BCA4092B29A816369E26903EBA8
S3150200212082039C4563619CBFE3686361D8F80C3007
S31502002130BA68D3E900011268904738B9D8F80C207A
S31502002140BB681068DB6898470028B9D0BDE8F08103
S31502002150EB68DB03B8D4EB68224643F48033EB60CA
S31502002160B17F96F92100FFF7F3FEADE72246317FF4
S31502002170FFF7EEFEB0E740F2EB30E7E71720E5E7C0
S3150200218038B5D0E90154D4F8E03003B3E36823F05C
S315020021900403E3600023C4F8E0304368DB681BB144
S315020021A09A681868126A904795F92130002B0EDB5F
S315020021B02369C3F340029B0709D4E36862F3104321
S315020021C0E36095F92100BDE83840FFF7B1BE38BD9E
S315020021D008B5FFF7D5FF002008BD000070B505461B
S315020021E0D0E90164FFF7CCFF012363604FF47A73F1
S315020021F06269D20701D5013BFAD1E3680E4A23F49C
S31502002200803323F00203E36000232361A2612B6083
S3150200221096F91F00984201DBFFF78AFE96F9200025
S31502002220002801DBFFF784FE96F92100002801DB76
S31502002230FFF77EFE002070BD0200070873B5436AF1
S3150200224004460E466D4693B193E8030085E8030003
S315020022501E71A16ADA8019601846226A9047636A7B
S315020022601BB195E8030083E8030002B070BD2B465C
S31502002270EEE700002DE9F047DFF820814D680746BA
S315020022804FEA05290E4608EB05258C69EFF3108AFD
S31502002290012181F310883E4B9A6822F080729A607F
S315020022A09B681E2000F09EFE8AF31088327A737AAB
S315020022B04FF00B0E43EA0273227E4EF001E043EA30
S315020022C00213227D43EA0263627D43EA0243A27D50
S315020022D043EA0233E27D43EA02232B62A37E627E55
S315020022E01B0443EA0263227813436B62A38BAB623D
S315020022F0E38BEB62238C2B63234633F8222F6A632C
S31502002300002233F8020F02F10E0145F821000132D4
S315020023100FF009C823464FF0140E33F83A2F4EF049
S3150200232001E06A66002233F8020F02F11A0145F84B
S31502002330210001320FF009C894F864300020C5F874
S31502002340C030B4F86620B4F8683043EA0243C5F8F0
S31502002350C430E36EC5F8C830236FC5F8CC3001230C
S3150200236049F808300B4BAB61D4E901321343E268FA
S315020023701343226913432B61C7E9016533693B6243
S3150200238073697862BB62044B3B60BDE8F08700BFAD
S3150200239000302040020007084D44500000612540ED
S315020023A038B5EFF3038402210D4B103C64B253F8A7
S315020023B02450AA68136923F002031361AB6899617A
S315020023C02B6A1BB100222846FFF738FF2046FFF78B
S315020023D0A1FDAA68136943F00203136138BD00BF69
S315020023E070E7032210B5EFF303840C4B103C64B282
S315020023F053F8240083685A6922F0774222F478025D
S31502002400120C12049A61036A1BB10321120CFFF724
S3150200241015FF2046BDE81040FFF77CBD70E703229A
S3150200242038B528B304681CB3236A0BB36268A38B5E
S31502002430D0689269A16892F86420E831D340826834
S315020024409BB2956800686269A847E269636920469B
S3150200245003EB8203D4E9031201EB8202934228BF03
S315020024600B4663610022BDE838400121FFF7E6BE54
S3150200247038BD0000EFF31080012383F31088064B6A
S31502002480196819B9054A1175402111751A68013280
S315020024901A6080F3108870476CE70322000D4040F3
S315020024A0EFF31081012383F31088074B1A6812B1E8
S315020024B01A68013A1A601A681AB9044B1A75802208
S315020024C01A7581F3108870476CE70322000D4040AD
S315020024D0030A11F4803F30B5094AC0B24FEA03132A
S315020024E00AD01C1852F8245025F4803542F824509C
S315020024F021F4803542F82450034442F8231030BDBB
S31502002500000840402DE9F74F80460027304C314DF8
S31502002510B8F80030BB4202D803B0BDE8F08F0026FF
S315020025202D4B4FEAC7090193D8F80430019803EB03
S31502002530090130F8022B8988019091422BD10122A0
S3150200254053F80930B24003F0B853B3F1807F94F8E0
S315020025504C1C5FFA82FA06F1200B21D111EA0A0F0E
S315020025600BD1012000F0D4FD94F84C1C012041EA65
S315020025700A0284F84C2C00F09FFD15F81B20D209A4
S3150200258009D115F81B2042F080020121C82005F866
S315020025901B2000F027FD0136032EC5D10137B7E710
S315020025A011EA0A0F0BD0012000F0B2FD94F84C1C80
S315020025B0012021EA0A0284F84C2C00F07DFD15F870
S315020025C01B20D209E7D015F81B2022F08002DCE797
S315020025D000E0014000202040AA36010238B5054637
S315020025E00024FFF78FFFFFF745FF2A88A3B29A421E
S315020025F003D8BDE83840FFF753BF6B68A2B203EBBE
S31502002600C20053F832108088FFF762FF0134ECE70C
S3150200261008B5034B03600846FFF7E0FF002008BD3C
S3150200262054524F500901836841F00101C9B200209A
S31502002630597770478368002058777047012283686C
S3150200264000201A7770474FF480638B604FF4803313
S315020026500B6083681A8ADB6812F4404F4B6083680A
S315020026604FF000009B689BB2CB604FF6FF7318BF1A
S315020026704FF480638B60704706207047C1604261E9
S315020026800020704730B50346426800205268114C5C
S31502002690117801F5C55144F8210099680877D16887
S315020026A0A1B1012592F901104C0901F01F018D40DB
S315020026B004F12001084C44F82150BFF34F8FBFF3B9
S315020026C06F8F92F90110054A42F821000020186026
S315020026D030BD00BF0060004000E100E070E7032269
S315020026E010B54368094C596800230A7802F5C552A9
S315020026F044F82230826813770A78498902F5C5526E
S3150200270044F822108268537710BD00BF0060004073
S3150200271037B51D4601910092FFF7E2FF019B044681
S3150200272013B1019A83681A60009B13B1A368009AD9
S315020027305A60A36800201A8A12F4404F4FF0010231
S3150200274014BFDD609D60A3681A7703B030BD08B57B
S31502002750FFF7C6FF002008BD2DE9F0470D46436886
S3150200276004465F68FFF7BCFF95F802E0EA78CEF30D
S315020027708100C2F381038001910940EA8330890313
S31502002780C2F30113EE8941EA032102F0C003802B52
S31502002790B6B203D012F0400200F0B180AA8906EB6D
S315020027A00646802B26F0FC261FFA82FA01D0402B21
S315020027B003D1CEF3001C41EA0C31B7F80AC0D4F8B3
S315020027C00C80BCF1000F18BF41F00101C446B8F1FC
S315020027D0000F42D01EF0200F00F09580C02B14BFD0
S315020027E04FF01C0C4FF0100C97F9013097F802E0ED
S315020027F0002BACBF03F16048DFF818814FEA0E1ECA
S315020028005FFA8EFEABBF08F5614803F00F0988F840
S3150200281000E308F809E0DFF800E103F5C6584EF8D0
S315020028202340DFF8F8E05EF8289029F480394EF864
S3150200283028905EF828E0BFF35F8F4FF0010E03F099
S315020028401F085B099B0003F160430EFA08FE03F5BD
S315020028506143C3F880E1C3F800E095F803E00EF0A7
S31502002860C003C02B52D1AB890EF00C0EBEF1040F81
S315020028709BB208BF9E4695F80290B5F80E8009F005
S315020028800C0914BFB7F808E040F400501FFA88F8A4
S31502002890B9F1040FA268D5F8049018BF13FB08F328
S315020028A0C2F82090D5F80890A26814BF9BB240F0F7
S315020028B020000EEB0E4E03EB0343C2F82490A268EF
S315020028C080B2C2F828E0A26889B2D362A3685FFA2E
S315020028D08CFC9882A36819826968A3681960A36848
S315020028E0A9685960A3689E60A368C3F80CA0A36890
S315020028F07A689A61A36883F813C0BDE8F0879246A6
S3150200290041F4005159E74FF0100C6DE700239E4643
S31502002910D5E700BF14ED00E070E703220060004037
S3150200292010B50446FFF718FF0122A36800201A77A4
S3150200293010BD00002DE9F04100264A684160137877
S31502002940044603F1807303F520739B018360D36809
S315020029500D46C360536906614361EFF31088012790
S3150200296087F310880B4B1A6822F480021A601B68E0
S315020029701E20394600F036FB88F31088064B2046A7
S315020029801F701E742968FFF7E7FE044B304623606A
S31502002990BDE8F0810030204000A8004043414D448C
S315020029A013B5EFF30383103B0D4A5BB203F5C65131
S315020029B052F8210020F4803042F8210052F82120FA
S315020029C0084A01A852F8234063690193E3689847CD
S315020029D0A368DA680AB101221A7702B010BD00BFF5
S315020029E00060004070E70322B0F5004F10B51BD916
S315020029F0124B00F5742000F23F20B0FBF3F0104BAF
S31502002A0040F0F05400E05C605A688242FBD1B1F5B6
S31502002A10004F10D9094A01F5742101F23F21B1FB99
S31502002A20F2F141F0614002E00020E8E798609A681E
S31502002A308A42FBD110BD0021F3E700BF40420F00DE
S31502002A4000C0134010B5047844F0400404700478C2
S31502002A50E409FCD043F0C0030A700370037803F064
S31502002A60BF0303700378DB09FCD110BD10B5104A11
S31502002A7092F82630918C0F4A01F00F01DBB2A1F1D8
S31502002A80080052F8233003280FD8DFE800F00208C6
S31502002A900A0C0322B3FBF2F3074A136010BD0622A7
S31502002AA0F8E70C22F6E71822F4E7CB40F4E700BF7A
S31502002AB000E0014020C10022C0E703220022034BAE
S31502002AC01A701A781A781B78704700BF00C0134034
S31502002AD0044A5368C3F30903642B84BF01231370AA
S31502002AE0704700BF00C01340704700004AF203520D
S31502002AF02DE9F843504B514CB3F8FA63A3F8FA2385
S31502002B0063680746DA03B6B238D4EFF310880125B4
S31502002B1085F31088636843F48033636063681E201C
S31502002B20294600F05FFA88F310886368A8469B037B
S31502002B3010D445F00208EFF31089012181F31088C1
S31502002B40636843F40033636063681E2000F04AFA48
S31502002B5089F31088384A3A4992F8753092F86D200E
S31502002B6003F00F0302F00F0251F82300072A5ED882
S31502002B70DFE802F0545454066057595B0025D4E747
S31502002B800623B0FBF3F02F4B0121B0FBF3F0884094
S31502002B9000F028FA284B93F8752042F0400283F899
S31502002BA0752093F87520D209FBD07A7883F86D20C8
S31502002BB03A7842F0400283F875203A7883F8752015
S31502002BC01D4A92F87530DB09FBD175B1EFF310851A
S31502002BD0012181F31088636823F48033636063689C
S31502002BE01E2000F0FFF985F3108818F0020F0ED0B0
S31502002BF0EFF31085012181F31088636823F4003313
S31502002C00636063681E2000F0EDF985F310880A4BB5
S31502002C1046F42546A3F8FA63BDE8F88301239340F8
S31502002C20AFE70323ADE70523ABE70A23A9E71023A2
S31502002C30083AF4E70823A4E700E001400030204008
S31502002C4020C1002240420F004AF2035373B5A04C42
S31502002C50A04AA4F8FA33A04EA04BA149C3E90062E8
S31502002C604FF40042C3E902211A619E4ADFF8B0E23C
S31502002C705A619D4A9D48C3E907E29D4A9A619D4A67
S31502002C80C3E90902FFF7F2FE0A2384F8503A092340
S31502002C9084F8A23094F8003C23B994F8013C9D07CD
S31502002CA000F0118194F8003C53B90121C82084F840
S31502002CB0001C00F097F9864A92F8003C012BFBD1E2
S31502002CC00022834B83F8012C83F8002C0022804BD0
S31502002CD083F8362083F8322093F83C201407FBD57C
S31502002CE0854A0020C3F8C82040F22342A3F84E20AA
S31502002CF04FF6021283F84A00C3F8AC2040F2514262
S31502002D00A3F84C20BFF34F8FBFF36F8F7B4A5169F5
S31502002D1021F400315161C2F85002BFF34F8FBFF365
S31502002D206F8F02F57342116821F440511160BFF3AF
S31502002D304F8FBFF36F8F0120197D60F30201197562
S31502002D4063490B7DD806FCD4136843F440531360E1
S31502002D50BFF34F8FBFF36F8F684B5A6912F400327D
S31502002D6011D1BFF34F8FBFF36F8FC3F85022BFF35A
S31502002D704F8FBFF36F8F5A6942F400325A61BFF325
S31502002D804F8FBFF36F8F0023514C84F82A3094F88B
S31502002D903C309B06FBD55A495A48FFF78FFEFFF790
S31502002DA023FE594B236242F22013A384052384F89F
S31502002DB02630FFF75BFE01211E2000F013F9FFF714
S31502002DC087FEFFF753FE4AF20152504B1A80BFF3B9
S31502002DD05F8F01251D72BFF35F8F4FF425424C4969
S31502002DE01A804C4809230322FFF72CFE002384F89D
S31502002DF0535084F83E30802384F83E3094F8743081
S31502002E0043F0400384F87430314C94F87430DB0993
S31502002E10FBD0072384F86C304A2384F874300A23E3
S31502002E2084F8743094F87420D509FBD1072601A8DA
S31502002E30ADF80460FFF75AFE374938480A230322E1
S31502002E40FFF700FE0A2302221A392138FFF7FAFD9C
S31502002E5033462A4602310230FFF7F4FD06230122E9
S31502002E6019441844FFF7EEFD0923022214311B30E0
S31502002E70FFF7E8FD0A23012212391938FFF7E2FDAE
S31502002E800A23042211311830FFF7DCFD02220A233D
S31502002E9015391C38FFF7D6FD05237B318030FFF745
S31502002EA0D1FD0122052311441044FFF7CBFD09236E
S31502002EB002311A460230FFF7C5FD4FF42543A4F846
S31502002EC0FA3302B070BD4FF47A70FFF70DFEFDE6DD
S31502002ED000E0014000127A00006CDC0220C10022F0
S31502002EE000366E0100CA9A3B0084D7170008AF2F3E
S31502002EF00046C32300389C1C022B010000ED00E0B3
S31502002F004059730780B2E60E323423320020004065
S31502002F10D4E00140DAE001406EE0014076E0014093
S31502002F205543DE13014B53F82000704720C100229F
S31502002F3038B50025254C0121C82084F8285000F018
S31502002F4051F884F8245094F82430002BFBD194F8DD
S31502002F50243043F0020384F8243094F82430C3F377
S31502002F6040029B07F9D484F8222094F8223003F019
S31502002F70FF02002BF9D194F8403062F3C71384F8AC
S31502002F80403094F84030DA09FBD194F8423062F3CB
S31502002F90C71384F8423094F84230DA09FBD194F828
S31502002FA0443062F3C71384F8443094F84430C3F3D0
S31502002FB0C015DB09F9D1012000F0AAF8044B012063
S31502002FC083F84C5CBDE8384000F076B8002020401B
S31502002FD000E0014000BEFEE7A0F101000028FBD19F
S31502002FE0704700BF10B4144B144A1B6848439342FF
S31502002FF00CD3134A03F5742303F23F23B3FBF2F314
S31502003000A0FB030363B14FF0FF300AE00D4AB2FBA7
S31502003010F3F24FF47A73A0FB031434B9B1FBF2F066
S3150200302030B15DF8044BFFF7D7BFB0FBF2F0E7E72C
S315020030305DF8044B704700BFC0E7032200127A0016
S3150200304040420F0000CA9A3BF8B5002401260D4BF8
S315020030500D4FD3F80021D3F82051154006FA04F398
S315020030602B4204D057F824300BB1E0B29847013412
S31502003070152CF3D1034BC3F81051D3F820212A4261
S31502003080FBD1F8BD00C0004018E70322002210233E
S3150200309030B50749074C31F8020B18B102F5C6558F
S315020030A044F82500013B02F10102F4D130BD00BF14
S315020030B0583601020060004010B5EFF3108101237B
S315020030C083F310880F4A32F810309BB22BB132F8D4
S315020030D01030013B9BB222F8103032F810309BB20E
S315020030E063B9094A094CB2F8FA3334F810009BB2B4
S315020030F043F4254323EA0003A2F8FA3381F3108846
S3150200310010BD00BFB0E7032200E001400C39010206
S3150200311030B5EFF31084012383F310880D4A32F899
S3150200312010309BB263B90C490C4DB1F8FA3335F83D
S3150200313010509BB22B4343F425439BB2A1F8FA33BA
S3150200314032F8103001339BB222F8103084F3108823
S3150200315030BD00BFB0E7032200E001400C39010296
S3150200316008B508490B68C218B2F5004F06D903F034
S3150200317041FF0C2303604FF0FF3008BD02480A608E
S315020031801844FAE7BCE7032220010022F8B50446F8
S31502003190284D95F8503C03F0FF07002BF9D1872301
S315020031A0A5F8243C102385F8003C84B10126384654
S315020031B0FFF7AEFF204B384683F85360FFF77CFFDC
S315020031C01C4A85F8206C92F8503C1807FBD4012261
S315020031D0184B83F8022C002283F8012C93F8502C0A
S315020031E0002AFBD144B14FF40C72A3F8482C114AC1
S315020031F092F8503CD907FBD40E4B104A47F2A8313D
S31502003200C3F8442C012283F8402CA3F8141C83F83B
S31502003210162C1CB1112283F8002CF8BD93F8002C51
S31502003220D207FBD493F8502C002AF7D1012283F857
S31502003230102CF2E70030004000E0014003250500B3
S3150200324000BE704708B500F02FF8FDF7BFFFFEE796
S31502003250F8B505460024134E3768A74204D8002461
S31502003260B768A7420FD8F8BD0C2363437168CA1822
S31502003270507AA84205D1C85852680021121A03F0A2
S31502003280A1FE0134E9E7F268210102EB0413587B3F
S31502003290A84205D150585A689968121A03F0B2FE2C
S315020032A00134DEE7DC360102F7B5B24BB24A5A61A7
S315020032B0BFF34F8FBFF36F8F1A6802F47003B3F533
S315020032C0801FAE4B01D1100703D112F4600F00F03C
S315020032D0EF801A6842F004021A60BFF34F8FBFF301
S315020032E06F8F4FF47003A34C0020C4F88830A44BB0
S315020032F00026A360FDF7E6FAFFF7A6FC4AF20252A1
S31502003300A04B0120A3F8FA234FF4254283F8B06AB2
S31502003310A3F8FA23FDF7D6FA9B4B83F30A88974A5A
S315020033201368990724D5A368B3F1007F20D11369E6
S3150200333051690122C3F3C303093302FA03F3DB081B
S315020033400024002543F005C0E6E802450FF005C05B
S31502003350C1F3C30109318A40D2084FF0005342F04B
S3150200336007C800BFAFF30080E3E802450FF005C0CF
S315020033700020FFF76DFFFFF779FBFFF7D9FD03206A
S31502003380FFF7C6FE00234FF00E0E1C464EF001E07C
S315020033907E4A03F10C0122F8214001330FF007C8DF
S315020033A000250320FFF788FE0320FFF7B1FE784BC6
S315020033B003205C609C60DC601C61FFF77DFE6D4A49
S315020033C0744ED2F8C03023F0FF0343F04403C2F830
S315020033D0C03033690193019BE9B28B4277D8BFF3C0
S315020033E05F8F0522634BC3F894205A6A42F48032F7
S315020033F05A62BFF34F8FBFF36F8F5A6912F480324E
S3150200340028D1C3F88420BFF34F8F43F6E074D3F874
S315020034108020C2F3C900C2F34E32520100F1010EFE
S3150200342001464EF001E002EA040646EA8175C3F857
S31502003430605201390FF007C8203A12F1200FEDD180
S31502003440BFF34F8F5A6942F480325A61BFF34F8FEE
S31502003450BFF36F8F4B4CD4F8D8339A0753D5D4F8B1
S31502003460D833484CD4F8D8335B0765D5D4F8D8336B
S315020034700220FDF727FA0120FFF7EAFEBFF34F8F7E
S31502003480BFF36F8F00243B4BC3F85042BFF34F8FFD
S31502003490BFF36F8F404E414DAD1BAD10AC4264DBA6
S315020034A0FFF7F4FD002003B0BDE8F04000F078B865
S315020034B01A6842F004021A60BFF34F8FBFF36F8F90
S315020034C04FF0E022936843F48033936005E7736913
S315020034D0013503EBC10753F831407B6824F01F0422
S315020034E0203B23F01F0343F001075B092033B3EBB4
S315020034F0541F44F0010082BFC2F89810C2F89C0023
S31502003500C2F8A07067E794F81031002BA9D0012009
S31502003510FFF7FEFD94F8103103F0C003802BF9D1BA
S315020035200023184A84F8103192F810313F2BFBD849
S315020035300120FFF7C1FD94E794F81431002B97D0D0
S315020035400120FFF7E5FD94F8143103F0C003802B48
S31502003550F9D100230B4A84F8143192F814313F2B27
S31502003560FBD80120FFF7A8FD82E756F8043B9847EF
S31502003570013493E700ED00E001020E0000E001E0F5
S315020035800000000200E0014020810022000D4040C0
S3150200359000402040DC3601025087020254870202B4
S315020035A070470000B0F5807F28D012D8402828D076
S315020035B009D8102828D0B7EE000ADFED187A20289D
S315020035C007FE800A7047B7EE000ADFED157A8028FB
S315020035D0F6E7B0F5006F1AD009D8B0F5007F19D01A
S315020035E0B7EE000ADFED0F7AB0F5806FE8E7B7EEC7
S315020035F0000ADFED0D7AB0F5805FE1E79FED0B0A79
S3150200360070479FED0B0A70479FED0A0A70479FEDC0
S315020036100A0A70479FED090A704700BF0000003D85
S315020036200000003C0000803A000080390000803B28
S315020036300000803C0000803D0000003A0000003B94
S315020036402DE9F04F2DED108B904695B092088946E4
S315020036508DED130A9246414600244FF0010BBAF152
S31502003660010F1CDC704BA6EE109B93ED005F26EF5C
S31502003670446826EF5641B4FD109EB6FD105E139ABD
S3150200368096FD04BEA0EE102B4FEAD8030133013B90
S3150200369040F0978015B0BDEC108BBDE8F08F036942
S315020036A04FF0000E1D59C36903EB85030C93436962
S315020036B01D59036A03EB85030D9383691D59436AFA
S315020036C003EB85030E93D3000793CB0000935308B5
S315020036D01B010F9318234946534309EB0215109316
S315020036E0F34507DC11464FEA8B0B4FEAAA0A04346C
S315020036F09208B4E7109B91ED007F0B441193079B50
S3150200370095ED001F0B4412930F4600230F9E3609B8
S31502003710013606960E9E1E440B965E1908960C9E60
S315020037201E4409960D9E1E440A96119E9E190596E2
S31502003730129E03EB060C069E1033013E069605D139
S31502003740009B0EF1010E19441D44C9E7059E9CED2E
S31502003750005F96ED009F06EF402D26EF406D08EFC5
S31502003760440D24EF484D02EF408D87ED009F0A9EDF
S3150200377022EF402D96ED009F38FE020EB8FC42085D
S315020037808CED001F099E96FC448896ED001F30FEC4
S31502003790082EB0FC4828089E03EB050C86ED003F78
S315020037A00B9E96FD442896ED005F34FE026EB4FC35
S315020037B04268059E86ED007FB7ED047F9CED001FF3
S315020037C0A8E728EF4A2D08EF4A4D8DED003F96FDFA
S315020037D0069E96FD023E08EF42ED26EF56A104EF45
S315020037E04ECD24EF4E4D22EF482D00FF5CCDBAFDA3
S315020037F0109E00FF544DB6FD10BE06FD10DE06FDFE
S315020038000E5E9DED00DF9CFC424800FF544D06FD16
S315020038100C5E9DED00DF9CFD424800FF544D96FD77
S3150200382004BE06FD0A5E32E7283901022DE9F04F91
S3150200383090462DED108B9208894692464146002409
S315020038404FF0010B91B0BAF1010F19DC684BA6EEED
S31502003850109B93ED005F26EF446826EF5641B4FDB8
S31502003860101EB6FD105E96FD049E4FEAD803013384
S31502003870013B40F0978011B0BDEC108BBDE8F08F94
S3150200388003694FF0000E1D59C36903EB85030993C3
S3150200389043691D59036A03EB85030A9383691D591C
S315020038A0436A03EB85030B93D3000493CB00019386
S315020038B053081B010C9318234946534309EB02157F
S315020038C00D93F34507DC11464FEA8B0B4FEAAA0A22
S315020038D004349208B7E70D9B91ED007F0B440E93DB
S315020038E0049B95ED003F0B440F930F4600230C9E5D
S315020038F03609013603960B9E1E4408965E190596F6
S31502003900099E1E4406960A9E1E4407960E9E9E1900
S3150200391002960F9E03EB060C039E1033013E03969E
S3150200392005D1019B0EF1010E19441D44C9E7029E01
S315020039309CED001F96ED009F06EF424D26EF426D6D
S3150200394008EF402D20EF480D04EF428D87ED009FD2
S31502003950079E24EF424D96ED009F38FE042EB8FDD9
S3150200396044288CED003F069E96FD408896ED003F6A
S3150200397032FE084EB2FD4848059E96FC402886ED6A
S31502003980005F089E03EB050C96ED005F34FE026EA7
S31502003990B4FD4268029E86ED007FB7ED047F9CED82
S315020039A0003FA8E700EF482D20EF48AD96FD025EE6
S315020039B096FD061E26EF568100EF44CD24EF404DBC
S315020039C002EF4CEDB8FD101E22EF4C2DB6FD109EF7
S315020039D006FD10FE06FD0E3E9AFD442806FD0C3E2F
S315020039E09AFC442896FD049E06FD0A3E40E700BF67
S315020039F0183901022DE9F0412DED0C8B012A0546FD
S31502003A000C461E46008878D1B0F5807F32D027D882
S31502003A1040282FD022D810282CD0202835D0CEB13D
S31502003A200123AA68A6EE103BBAFC040F21FE062E5D
S31502003A3021FE065EA889C3080133013B40F0AE8031
S31502003A40430707D094FCD26F94FCD40F84ECD20FB8
S31502003A5084ECD46FBDEC0C8BBDE8F0818028DDE7E9
S31502003A60B0F5006F11D00DD8B0F5007F0DD0B0F5CE
S31502003A70806FD4D1FFF796FD024621462846FFF70E
S31502003A80DFFDCCE7B0F5805FF3E7FFF78BFD4FEA8A
S31502003A90900E4FEA0E1EAEF1100E4FEA1E1E04EBFA
S31502003AA080070EF1010EB0EE408A21463A464EF0EC
S31502003AB001E06B684FEA500892ED003F0846B1EC10
S31502003AC0047FB3EC041F26EF42AD30FE0A4E06EF2A
S31502003AD0426DB0FC4A4880ED007FA2EC045F0FF015
S31502003AE015C8B0EE480A424621462846FFF7A8FD09
S31502003AF0B0EE480A42463946C1E7B0F5807F44D067
S31502003B0038D8402841D033D810283ED0202886D134
S31502003B104FEA900E4FEA0E1EAEF1100E4FEA1E1E2F
S31502003B2004EB80070EF1010E22463B464EF001E001
S31502003B3069684FEA500893ED003F1046B2EC047FE5
S31502003B40B1EC041F26EF428D30FE084E06EF426DA1
S31502003B50B0FD484880ED007FA3EC045F0FF015C866
S31502003B60424621462846FFF761FE424639460FE0A5
S31502003B708028CCE7B0F5006FCAD00CD8B0F5007F2C
S31502003B80C6D0B0F5806F7FF44AAF0246214628467A
S31502003B90FFF74CFE43E7B0F5805FF4E71146B9FC48
S31502003BA004AF94FCD4CF2BFE068E2BFE061E94FC8D
S31502003BB0D2AF84ECD2CF84ECD4AF99FD00AF94FCA3
S31502003BC0D0CF2BFE062E2BFE065E94FCD8AF10320B
S31502003BD084ECD8CF84ECD0AF2FE700004FF400631B
S31502003BE003804FF4F8638381084B8360084B43607C
S31502003BF0084B0361084BC361084B4361084B0362E0
S31502003C00084B8361084B436200207047B8B8010233
S31502003C1030D70102B8760202F06B0202A4760202E3
S31502003C205061020290760202B05602024FF480639D
S31502003C3003804FF478738381084B8360084B43609B
S31502003C40084B0361084BC361084B4361084B03628F
S31502003C50084B8361084B43620020704738C8010253
S31502003C6030170202B8760202F06B0202A476020252
S31502003C705061020290760202B05602024FF40073BD
S31502003C8003804FF4F0738381084B8360084B4360D3
S31502003C90084B0361084BC361084B4361084B03623F
S31502003CA0084B8361084B436200207047F8CF01023C
S31502003CB030370202CC7E02020C7C0202BC7E020279
S31502003CC06C790202AC7E0202CC7602024FF4807359
S31502003CD00380F0238381094B8360094B4360094BC0
S31502003CE00361094BC361094B4361094B0362094BEB
S31502003CF08361094B43620020704700BFB8D30102BB
S31502003D0030470202CC7E02020C7C0202BC7E020218
S31502003D106C790202AC7E0202CC7602028023038018
S31502003D2070238381084B8360084B4360084B036111
S31502003D30084BC361084B4361084B0362084B83611E
S31502003D40084B43620020704798D50102304F0202A9
S31502003D50D48002021C800202C88002027C7F020218
S31502003D60BC800202DC7E0202402303803823838168
S31502003D70084B8360084B4360084B0361084BC361E1
S31502003D80084B4361084B0362084B8361084B43624D
S31502003D900020704778D6010230530202D480020214
S31502003DA01C800202C88002027C7F0202BC800202E0
S31502003DB0DC7E02022023038018238381084B836062
S31502003DC0084B4360084B0361084BC361084B4361D0
S31502003DD0084B0362084B8361084B4362002070471D
S31502003DE0E8D6010230550202508102022081020207
S31502003DF0488102020081020240810202E080020240
S31502003E00102303800C238381084B8360084B436095
S31502003E10084B0361084BC361084B4361084B0362BD
S31502003E20084B8361084B43620020704718D7010292
S31502003E3030560202508102022081020248810202A9
S31502003E400081020240810202E08002022DE9F04F67
S31502003E502DED108B17469FB002F1080801F10802FA
S31502003E6081460E461C461C92002B00F0CB80D1EDFB
S31502003E70007AD1ED016AB6EE006A37EEA67A002222
S31502003E8077EEE67A23EE6F8F27EE067A67EE867A6C
S31502003E90B9F80030C06A013B01EBC30C9910002946
S31502003EA001F1010EB9FFC88387ED007AC7ED017AE9
S31502003EB0E246B8BF4FF0010EBD181D95BEF1010EC8
S31502003EC000EB020506EB020B009502F1200223D15C
S31502003ED0F6EE006A21EAE1711C9D4A0105EB4115E5
S31502003EE0ACEB411C03F0030302F10801084442440F
S31502003EF00133013BACF1080C00F1080002F10802A3
S31502003F005AD101232246394648461FB0BDEC108BD2
S31502003F10BDE8F04FFFF76EBD9BFC001F9BFC201F08
S31502003F200AF1040B9BFC494F009DB9FFC44795FC5F
S31502003F3000BF95FC20BF8DEC08AB9AFC496F8DED56
S31502003F40085F9DED045F26EF40CDB9FFC4A79DED46
S31502003F5000FF9DED085F0CFF5EED24EF424D2AEF58
S31502003F6054EC8DED18FF9DED00FF04FF5E4D18AD7C
S31502003F700AEF5C4C06EF406D95ED00BF06EF4A6D09
S31502003F809DED08BF4FF07C550AEF422D37EE656E68
S31502003F9002EF444D8DED107F35EE656E8DED147F8B
S31502003FA00DF1400B9BEC084B1D9DAAF1200A85FCE6
S31502003FB0005F85FC205F7FE7D5ED003AD5ED017AFB
S31502003FC09CED034A9CED027A50ED025A50ED014AED
S31502003FD033EEC75A34EE276A37EE237A77EEC47A7F
S31502003FE005EEC57A44EE857A04EEC67A45EEC67AC1
S31502003FF027EE267A67EEA67A02ED027A42ED017A7A
S31502004000083576E722460123FFF7F4FCD6ED007A5F
S3150200401096ED017A77EEA77A37EE077AB6EE006A60
S3150200402077EE876A77EEC77A25EE6F8F66EE866A37
S3150200403067EE867AB9F80030D9F82C10013B9A104F
S3150200404006EBC300002A02F1010CB9FFC883C7EDD3
S31502004050006AC7ED017A8646B8BF4FF0010CBCF183
S31502004060010C07EB040B01EB040A06EB040904F14D
S3150200407020041DD1F6EE006A22EAE2721C9D54016A
S3150200408005EB4215A0EB421003F0030304F108020C
S315020040901144A0440133013BA0F1080001F10801DB
S315020040A008F1080848D11FB0BDEC108BBDE8F08FAF
S315020040B099FC005F99FC205F0EF104098DEC084B18
S315020040C09DED003F9EFC494F99FC496F9AFC00DF2B
S315020040D09AFC20DF24EF420DB9FFC6679DED043F2F
S315020040E000FF5CAD26EF422D2EEF52AC02FF5C2D97
S315020040F00EEF502C9DED001F04AD04EF404D95EDE3
S31502004100001F06EF406D4FF07C5504EF4A4D06EF57
S31502004110426D35EE654E37EE656E8DED085F8DEDBF
S315020041200C7F0DF1200999EC084BAEF1200E8BFCA9
S31502004130005F8BFC205F92E7D5ED003AD5ED017A60
S3150200414090ED034A90ED027A51ED025A51ED014A81
S3150200415037EE635A34EE276A37EE237A77EEC47A5D
S3150200416005EE857A44EE857A04EE867A45EEC67ABF
S3150200417027EE267A67EEA67A08ED027A48ED017AEC
S31502004180083588E710B5044638B1FFF739FE18B985
S3150200419020232385024BE36210BD4FF0FF30FBE77D
S315020041A038B8010210B5044638B1FFF703FE18B954
S315020041B040232385024BE36210BD4FF0FF30FBE73D
S315020041C038B7010210B5044638B1FFF7CDFD18B96C
S315020041D080232385024BE36210BD4FF0FF30FBE7DD
S315020041E038B5010210B5044640B1FFF797FD20B974
S315020041F04FF480732385034BE36210BD4FF0FF300B
S31502004200FBE700BF38B1010210B5044640B1FFF723
S315020042105DFD20B94FF400732385034BE36210BDA5
S315020042204FF0FF30FBE700BF38A9010210B5044684
S3150200423040B1FFF723FD20B94FF480632385034B7A
S31502004240E36210BD4FF0FF30FBE700BF3899010271
S3150200425010B5044640B1FFF7E9FC20B94FF40063FC
S315020042602385034BE36210BD4FF0FF30FBE700BF2F
S315020042703879010210B5044640B1FFF7AFFC20B908
S315020042804FF480532385034BE36210BD4FF0FF309A
S31502004290FBE700BF38390102B1F5007F1ED00ED808
S315020042A080291DD006D820291ED040291AD04FF0C9
S315020042B0FF307047B1F5807FF9D1FFF793BFB1F5B3
S315020042C0006F09D0B1F5805F04D0B1F5806FEED1F1
S315020042D0FFF7ACBFFFF7CEBFFFF7BABFFFF794BF3A
S315020042E0FFF770BFFFF75EBFFFF74CBF10B5074A77
S315020042F0074C01440B1A002B00DC10BDD2F84838DB
S315020043009B00FBD510F8013B2371F3E70080354093
S31502004310008835400A4A536823F40003536000229A
S31502004320084BC3F808281022C3F80C2802F10042F1
S3150200433002F58042C3F810281122C3F808287047F4
S31502004340003020400080354080F31188BFF36F8F24
S315020043507047EFF311807047EFF31180102383F358
S315020043601188704701220020054B1A60054B4FF059
S31502004370805218604FF0E023C3F8042DFFF7E4BF24
S3150200438038E3002234E300224FF0E0234FF080525C
S31502004390C3F8042D7047000030484FF00101016058
S315020043A02F480168002909D14FF0085282F30A8882
S315020043B0DFF8B0D02C4A82F30A8811E02DE9F00F1B
S315020043C000B50A6912F4805205D01EF0100302D11C
S315020043D02DED108A08B4C1F818D04FF00002026021
S315020043E01F4C224D224E4FF0100282F31188D5F84F
S315020043F00080B8F1000F0DD1D6F800C0BCF1000F55
S3150200440008BF00F03DF94FF0000282F31188BFF3B6
S315020044106F8FE8E7C4F800804FF0085282F30A88EB
S31502004420D8F818D0D8F81C2082F30A88D8F81000D9
S3150200443010F4805006D0009B13F0100302D108BC82
S31502004440BDEC108A5DF804EBBDE8F00F03484FF0AF
S315020044500001016081F311887047000038E30022F1
S3150200446034E30022C8E80322C8E7032230E300222D
S31502004470E0E8032208B5024800F022F9FEE700BF91
S31502004480CA29010208B54FF0E023D3F82C2D094BB7
S315020044901B68194603B19968530007D54FF0E0230C
S315020044A00548D3F8283D00F0EBFAFEE7034800F092
S315020044B0E7FAFAE734E30022CF290102002A0102D1
S315020044C008B5024800F0FCF8FEE700BF2A2A0102FE
S315020044D008B5024800F0F4F8FEE700BF352A0102EB
S315020044E008B5024800F0ECF8FEE700BF402A0102D8
S315020044F008B5024800F0E4F8FEE700BF4D2A0102C3
S3150200450008B5024800F0DCF8FEE700BF552A0102B2
S3150200451010B5054C23680133236001F09BFF236825
S31502004520013B236010BD00BFC4E703220A4B0B4ABE
S3150200453000209A600A4ADA600A4A1A610A4A5A61ED
S315020045400A4A9A610A4ADA620A4A1A630A4A9A6362
S315020045500A4ADA63704700BF00EC03227544000280
S3150200456085440002C1440002D1440002E144000233
S31502004570F14400020145000299430002114500027E
S3150200458008B5FFF7E9FE00F05BF84FF0E0234FF0C5
S31502004590700E1F4AD3F8083D4EF001E013601D4A23
S315020045A010461968043342F8041B0FF007C04FF097
S315020045B0E022C2F8080DD2F80C3D174923F44073E5
S315020045C01B041B0C43F0BF6343F40033C2F80C3DDB
S315020045D04FF4E023C2F8243D0023C2F81C3D0F4BE2
S315020045E0C2F8203D0E4B0F4AB3F1085F98BF4FF059
S315020045F0085313600C4A0A600C490B600C4B1A6094
S315020046004FF0085383F30A8802F074F8FEE700BFFE
S31502004610D8E8032200EC0322D0E803220000F010BF
S3150200462000F30322D4E8032200000E22CCE8032280
S31502004630C8E8032200207047002070470020704718
S31502004640704708B5FFF788FEFEE70000821C08B532
S315020046500CD0431C04D003300AD06FF0100008BD02
S31502004660044800F02DF86FF00800F8E70248F8E772
S315020046700248F6E7642A0102832A01029F2A0102FE
S315020046807047FFF747BE000013B58DF80700FFF726
S3150200469063FE9DF8073004460A2B03D10121074821
S315020046A0FFF724FE01210DF10700FFF71FFE20464A
S315020046B0FFF74AFE002002B010BD00BF5881020279
S315020046C070B50446FFF748FE0646013C14F8015F42
S315020046D025B93046FFF738FE284670BD2846FFF753
S315020046E0D3FFF3E70346F0B595100C4C05F0100521
S315020046F002F03F0267198A4203F1FF3004D92C44C3
S31502004700625C03F8012CF0BDB1FBF2F602FB161156
S31502004710795C03F8011C31460346ECE75981020233
S315020047202DE9F04F81468A461F4600208BB015467A
S3150200473015F8013B3BB918B1291A52460139C84747
S315020047400BB0BDE8F08F252B05D0002818BF024616
S3150200475010462A46EBE718B1291A52460139C847CC
S3150200476029464FF0000B15F8012B2B2A1ED007D82D
S31502004770202A1ED0232A1FD02A2A23D000232CE047
S315020047802D2A0FD0302A1AD00023A2F13001C8B246
S31502004790092822D803EB830301EB430115F8012B09
S315020047A00BB2F2E74BF0010B2946DCE74BF0020BAA
S315020047B0FAE74BF0040BF7E74BF0080BF4E74BF084
S315020047C0100BF1E757F8042B13B2002BBEBF52426F
S315020047D013B24BF0010B2A788D1C2E2A36D12A7879
S315020047E02A2A0ED000240135A2F13001C8B20928C6
S315020047F00ED804EB840401EB440115F8012B0CB22C
S31502004800F2E757F8044B6A7824B224EAE4740235D4
S3150200481039460BF0EF0B4FF0000C02F0FB00682854
S3150200482006BF964615F8012B4FF0000E782A8DF832
S3150200483017C009D8632A0DD8582A21D0632A00F056
S31502004840A780002A00F0AF806A1E81E739464FF042
S31502004850FF34E0E70126A2F1640C7D485FFA8CFC86
S3150200486006FA0CF606420BD1732A76D0702AEBD1E1
S315020048700968043700296ED0023B90261BB247E036
S31502004880BEF16C0F096807F104070AD16F2A60D0DE
S315020048901AD8642A0BD0692A09D0582A27D00A26A0
S315020048A016E0BEF1680FF1D1692A09D109B20029D1
S315020048B013DA2D224942013B8DF817201BB2EEE78F
S315020048C0642AF3D089B2E1E7782A4FF00A060FD0BC
S315020048D0F1B9002C69D000211AE01BF0020F04D1B5
S315020048E01BF0040FDBD02022E5E72B22E3E74A2662
S315020048F00836023E1BF0080FF6B2E9D00029E8D0CE
S31502004900082E14BF022201229B1A1BB246F0800611
S3150200491032460DF126000093FFF7E4FE8046009B27
S315020049200DF12602A2EB08020192A21A12B200921D
S315020049300099BDF904200029D8BF14461BF01102C4
S31502004940A3EB0404A3B2029224B247D1A346414880
S3150200495035E00A26CDE70A26DAE7002CD1F80080F0
S3150200496007F104070CDB4046A1B20131013C0139D3
S31502004970024624B20AD010F8016B002EF6D105E0E9
S3150200498041460A4611F8010B0028FAD10A26C9E760
S315020049900A680A268DF82520644604370DF1260298
S315020049A00DF12508BEE7013DD2E60DF1260290463D
S315020049B0B8E7039352460121C8472648039B0BF1E9
S315020049C0FF3B0FFA8BFBBBF1000FF2DA013B1AB287
S315020049D001325FEAB4B414FA83F31CB29DF81730BD
S315020049E023B1524601210DF11700C84732060FD5F1
S315020049F0524601211848C847F30609D5174B16F047
S31502004A00400F174852464FF0010118BF1846C847D3
S31502004A10009B002B08DC029B102B05D1009400247E
S31502004A2002E001210C48C847009B5246013B1BB2DB
S31502004A30002B0093F5DA40460199013C24B2C8479F
S31502004A40002C01DA002283E6524601210148F4E7EE
S31502004A5021081200F92F0102BA2A0102B62A01021E
S31502004A60B82A010238B505460C4613880B44138052
S31502004A70013C00D538BD15F8010BFFF705FEF7E737
S31502004A800FB407B5002104AB53F8042BADF802109E
S31502004A9006480DF102010193FFF742FEBDF902003D
S31502004AA003B05DF804EB04B0704700BF654A00022C
S31502004AB0F0B50446012685B017468E40FFF74CFC3A
S31502004AC0636801336360FFF73FFCFFF745FC236829
S31502004AD006EA030533432360FFF736FC45B1009728
S31502004AE021223146A06803AB00F076FB051EECDA04
S31502004AF0FFF732FC6368013B6360FFF725FC28463B
S31502004B0005B0F0BD4FF0FF32FFF7D2BF38B504460D
S31502004B1001258D40FFF720FC236823EA0503236065
S31502004B20FFF712FC606828B12946A068BDE8384044
S31502004B3000F0F4BA38BD00007FB500250923CDE99F
S31502004B400235084B044601A80E46019300F06AFAA4
S31502004B50A842A060A2BF2846C4E90055E66004B098
S31502004B6070BD00BF4D4C4F4310B504468068002807
S31502004B7006DD00F099FA002801DB0020A06010BDD6
S31502004B806FF01000FBE7072A70B50D460446C9B25E
S31502004B9018DD83071CD12B042244121A01EB0126CD
S31502004BA003F47F0333439608002A06F1010643EA1B
S31502004BB00563ACBF35460125013D05D040F8043BEF
S31502004BC0043AF9E722EAE27202F0FCF9204670BDE5
S31502004BD000F8011BDDE7000010B500F09FF900F0B8
S31502004BE0FBF904460248FFF7BFFF204610BD00BF8F
S31502004BF0A0C3002238B514491448FFF79DFF041ECE
S31502004C001FDB0825002045F001E0114A114BC2E9DD
S31502004C100022C3E90033104B5168013DC3E900216C
S31502004C200B605360187248330FF00BC000F0A6F900
S31502004C30041E06DB094B00241D6000F05BF92046CA
S31502004C4038BDFFF7C9FFFAE7BC2A0102A0C300225A
S31502004C504CC1002254C100225CC100229CC3002226
S31502004C60036883421FBF4268136042685A607047F6
S31502004C7010B5FFF7F5FF04460830FFF7F1FF31B133
S31502004C80044B5A68C4E900325A6814605C60002317
S31502004C90236110BD04C7002208B5FFF7E1FF054BEB
S31502004CA05A68C0E900325A6810605860002383606F
S31502004CB008BD00BFBCC3002250F8403F834201D169
S31502004CC0002070479A698A4201D01B68F6E70120E4
S31502004CD0704700002DE9F74F0446019180480021F4
S31502004CE0FFF710FF63690027D3E90D295E691546B0
S31502004CF001F006FA236B6063BB42A76304F1200846
S31502004D0040F39880DFF8E8A1D4F82CB0FFF724FB33
S31502004D10DAF800203846538D01335385FFF714FB2A
S31502004D20D4E90B1233465BF8040CC847FFF714FBB1
S31502004D30DAF800203846538D013B5385FFF704FB12
S31502004D40A36B0133A36300216548FFF7DFFEA36B64
S31502004D50002B05DD4FF0FF320121E06B00F094FFDE
S31502004D6000215F486163FFF7CDFEDFF87491DFF83B
S31502004D7080A1276A474540F0878000215848FFF7FF
S31502004D80C5FE00215648FFF7BDFED4E90568E06B73
S31502004D90F76AD6F8149000F03DFF00212046FFF78F
S31502004DA067FF41463046FFF787FF40B1019B23F07C
S31502004DB001030193B36913F0010F08BF0027002115
S31502004DC04748FFF7A3FEBB460FB3DFF824A1FFF760
S31502004DD0C3FADAF800200020538D01335385FFF71A
S31502004DE0B3FA4048404B301AC010584301304A4685
S31502004DF0019908EB0020B8478346FFF7ADFADAF8C7
S31502004E0000200020538D013B5385FFF79DFA0021B8
S31502004E103348FFF777FE354B00215A683048C4E91C
S31502004E2000325A6814605C60FFF770FE584603B0A1
S31502004E30BDE8F08F276ADFF8B8A0474583D0FB6844
S31502004E4003B33B7F43F010033B77FFF785FADAF8AB
S31502004E5000200020538D01335385FFF775FA334640
S31502004E60012207F11001F868C847FFF775FADAF868
S31502004E7000200020538D013B5385FFF765FAA36B93
S31502004E800133A3633F68D8E73B7F002143F0100359
S31502004E903B774846FFF73AFEFFF75EFADAF800205C
S31502004EA00020538D01335385FFF74EFA3346012115
S31502004EB04FF0FF3207F11000A847FFF74DFADAF874
S31502004EC000200020538D013B5385FFF73DFA002158
S31502004ED04846FFF717FE3846FFF7DEFE49E700BFF2
S31502004EE0A0C300225CC10022398EE33804C7002227
S31502004EF034E3002210B5074C00212046FFF702FEDC
S31502004F000021054B2046C3E900339960BDE81040F5
S31502004F10FFF7FCBDA0C30022B0C30022F8B5144CB3
S31502004F2023681BB3002600211248FFF7EBFD124A45
S31502004F30A16813680F4F5B1A1360A6602568A54225
S31502004F4005D1BDE8F84000210A48FFF7DFBD002180
S31502004F503846AE60FFF7DAFD0021A5F10800FFF73B
S31502004F60B9FE00213846FFF7CDFDE7E7F8BD00BFE1
S31502004F70B0C30022A0C30022DCE80322102100B540
S31502004F80002041F001E0104A104BC2E900225168AC
S31502004F901861C3E900210B60536040330FF009C862
S31502004FA01021002041F001E0094A0A4BC2E9002221
S31502004FB051689860C3E900210B60536034330FF0E7
S31502004FC009C800205DF804FB04C700220CC70022B2
S31502004FD0BCC30022C4C30022002070471822014627
S31502004FE0806B034B013802FB003001F067BB00BF48
S31502004FF014CB0022094B10B5184600241121084A89
S315020050001B600139436001D1002010BDC2E90134A1
S3150200501010601A6013461832F3E700BF0CCB002269
S3150200502014CB002270B54368054633F009032CD130
S31502005030FFF792F9164A06461368934222D0196878
S31502005040144C4A6011601C1B134AE4105443C3E912
S31502005050003301349C602A68DA606A681A61AA68B9
S315020050605A610E4B1A680E4B1B689A4205D00D4BBD
S315020050701B68334301D1FFF787F93046FFF764F91E
S31502005080204670BD6FF02104EBE76FF00A04F7E7E4
S315020050900CCB002214CB0022ABAAAAAA34E300222C
S315020050A030E3002238E30022F8B5441E0F2C27D83D
S315020050B0FFF752F918235C43134F06463D19AB68B6
S315020050C0DBB1284601F0C8FA104B3B5100245A685E
S315020050D06A6015605D60AC600D4B1A680D4B1B680B
S315020050E09A4205D00C4B1B68334301D1FFF74CF9AA
S315020050F03046FFF729F92046F8BD6FF02904EBE7A1
S315020051006FF01104F7E700BF14CB00220CCB00228C
S3150200511034E3002230E3002238E300222DE9F0478F
S31502005120451E0F2D88464CD8FFF716F918236B43F8
S31502005130254F0646FC18A268002A3FD06269F85835
S3150200514042EA08026261A04225D0D0E912A8636948
S3150200515018F0010FD0F800900AEA030311D093B1B8
S31502005160036D62691A6001F02AFA18F0200F0CD159
S3150200517018F0100F07D01823002203FB05735A619B
S3150200518009E09A45ECD04846DDE7636923EA0A035B
S315020051906361002BECD100240C4B1A680C4B1B6884
S315020051A09A4205D00B4B1B68334301D1FFF7ECF84B
S315020051B03046FFF7C9F82046BDE8F0876FF02904AC
S315020051C0EAE76FF01104F6E714CB002234E300227B
S315020051D030E3002238E300222DE9F74F1F46002371
S315020051E000F1FF3BBBF10F0F0D461446DDF8309080
S315020051F0019374D8002975D032F0310372D1B9F116
S31502005200FF3F6FDBDFF8F880D8F8003023B16FF08C
S31502005210180003B0BDE8F08F344B1B68002BF6DC98
S31502005220DFF8E0A0DAF80030002BF0D0FFF791F8B3
S315020052300028ECD1FFF790F8064618202C4A00FB0E
S315020052400B2083689BB96FF029030193294BDAF887
S3150200525000201B689A4205D0D8F80030334301D1AA
S31502005260FFF792F83046FFF76FF80198D1E7016928
S315020052700B0708D4182303FB0BF3D358984202D02A
S315020052806FF02803E1E7436914F0010F03EA05030F
S3150200529012D09BB9184B11F0010F184A18BF1A46C3
S315020052A0DAF8003049465A6301AAC3E91125C3E96F
S315020052B0134701F0DFF9C9E79D42EBD1182303FB3F
S315020052C00B235969A006396044BFA9435961E30615
S315020052D0BCD5182303FB0B2200235361B6E76FF0FC
S315020052E0110096E76FF0100093E700BFC4E70322B0
S315020052F014CB002230E300227C8102028881020262
S3150200530038E3002234E300221C220146806B034B61
S31502005310013802FB003001F0D1B900BF9CCC00225B
S31502005320094B10B5184600240921084A1B600139A9
S31502005330436001D1002010BDC2E9013410601A6039
S3150200534013461C32F3E700BF94CC00229CCC002209
S31502005350F8B5461E072E0C464BD8FEF7FDFF1C235A
S31502005360254A054603FB0623996800293BD019699D
S3150200537011F0020102D06368002B37DD1C23734350
S31502005380D058D718B84215D0836C1C6001F017F9B3
S3150200539000241A4B1A681A4B1B689A4205D0194BFD
S315020053A01B682B4301D1FEF7EFFF2846FEF7CCFF21
S315020053B02046F8BD59B1143313441A461B681BB173
S315020053C0586861688842F8DD23601460E0E721606E
S315020053D043692BB944611C2303FB06229461D7E778
S315020053E083691C60F7E76FF02904D2E76FF01004B7
S315020053F0CFE76FF01104DBE79CCC002234E30022F6
S3150200540030E3002238E3002200232DE9F743471E4A
S31502005410072F0E46154601934DD8531C4EDBDFF877
S31502005420B890D9F8003023B16FF0180003B0BDE888
S31502005430F083244B1B68002BF6DCDFF8A080D8F83B
S315020054400030002BF0D0FEF784FF0028ECD1FEF7E7
S3150200545083FF1C2304461C4803FB070083689BB991
S315020054606FF029030193194BD8F800201B689A4262
S3150200547005D0D9F80030234301D1FEF785FF204637
S31502005480FEF762FF0198D1E743691BB133601B68DF
S315020054904361E8E703690E4A13F0010F0D4B2946F3
S315020054A018BF1A46D8F800305A6301AAC3E9112672
S315020054B001F0E0F8D7E76FF01100B7E76FF01000E0
S315020054C0B4E700BFC4E703229CCC002230E30022EB
S315020054D0A08102029481020238E3002234E3002210
S315020054E0034653F80C2BD01C002AB8BF0246B1EB78
S315020054F0A20F18460CDC006883420FD0C2688A42AB
